:020000040800F2
:1000000070B50F4B0F4DAB42A3EB050607D0B610F2
:10001000002455F8043B01349847A642F9D800F073
:100020001BFA094D094B5E1BAB424FEAA60606D0F0
:10003000002455F8043B01349847A642F9D870BD16
:1000400000000000000000000000000000000000B0
:1000500080B586B000F0B8F900F056F800F09CF8D2
:1000600000F01AF9254C264E4FF00108032723789B
:10007000032BFCD8DFE803F02C211202336883B392
:100080003368013B336000F07FF805460028EED16D
:1000900000F072F800F0EAF82570E8E719486946C0
:1000A00000F058F9BDF81410684600F03DF900F072
:1000B0005DF80A2327703360D9E700F065F805463C
:1000C0000028D4D100F0D2F800F056F82570CEE721
:1000D00000F05AF80028CAD000F0B2F884F8008086
:1000E000C5E700F049F800F04FF808B92070CAE7FA
:1000F00000F0A6F884F80080C5E700BF04000020E7
:100100000000002008000020164A136B43F0020391
:100110001363BFF34F8F144B1A6822F003021A6067
:100120001A6842F001021A605A6822F001025A600D
:100130009A6842F003029A60DA6822F00302DA60F9
:100140005A6922F001025A611A6822F00C021A6000
:10015000DA6822F00C02DA60DA6842F00802DA604B
:10016000704700BF0038024000040240014B0122EA
:100170009A61704700040240024B4FF480329A614A
:10018000704700BF00040240024B1869C0F34000F2
:10019000704700BF00040240274B1A6B42F0010277
:1001A00070B51A631A6C42F001021A64BFF34F8FE4
:1001B0000021A3F56053032502244FF00F0E4FF0EA
:1001C000010C1A6805FA01F622EA06021A6018689C
:1001D00004FA01F202431A60D86820EA0600D860E7
:1001E000186A4A000EFA02F620EA06001862186A37
:1001F0000CFA02F20231024308291A62E1D14FF0EF
:100200008043002240F201100C491A604FF0FF3485
:100210009A62DC625A6241F211149861D8611E2020
:100220001C62D86081F81C234FF080520A601A6863
:1002300022F001021A6070BD0038024000E100E0C7
:10024000094A4FF0804100231360137453605374C4
:1002500093609374D360D37413750B614B620B6816
:1002600043F001030B607047080000204FF080410D
:10027000084A0868002320F0010008600B61136041
:1002800013745360537493609374D360D374137571
:10029000704700BF08000020214B1A6B42F0020299
:1002A00070B51A631A6C42F480421A64BFF34F8F20
:1002B0001821A3F55053032502244FF00F0E4FF0E1
:1002C000050C1A6805FA01F622EA06021A60186897
:1002D00004FA01F202431A60986830439860D868C3
:1002E00020EA0600D8604A00586A203A0EFA02F660
:1002F00020EA06005862586A0CFA02F20231024300
:1003000020295A62DDD11968064A002021F0407187
:10031000196010605060136843F04003136070BDB3
:10032000003802400038004069B1094B01449A6826
:100330009207FCD510F8012B1A739A68D207FCD5E6
:100340008842DA68F3D1024A93681B06FCD47047EE
:100350000038004010B51423104C8B824FF0000C75
:1003600050F82C2014F801EB00236EF307034FEA3A
:10037000126E6EF30F234FEA124E6EF317434FEADD
:10038000122E6EF31F6341F8053B0CF1010CBCF11A
:10039000040F01F8012CE3D110BD00BF6004000878
:1003A000074AD2F8883043F47003C2F88830BFF3AC
:1003B0004F8FBFF36F8F034B0022DA60704700BF8F
:1003C00000ED00E0003802400D4A136843F480332A
:1003D000136013689903FCD50A4B536013680849EE
:1003E00043F0807313600B689B01FCD549F2024314
:1003F000034A8B60936803F00C03082BFAD1704713
:100400000038024008544007DFF834D0FFF7C8FF37
:100410000C480D490D4A002302E0D458C45004335F
:10042000C4188C42F9D30A4A0A4C002301E0136035
:100430000432A242FBD3FFF7E3FDFFF709FE70474A
:1004400000000220000000200000002064040008DA
:100450000000002020000020F8B500BFF8B500BF64
:04046000414243448E
:0400000508000409E2
:00000001FF
