:020000040800F2
:10000000000400005909000899090008990900082E
:1000100099090008990900089909000800000000E2
:100020000000000000000000000000009909000826
:1000300099090008000000009909000899090008C2
:100040009909000899090008990900089909000808
:1000500099090008990900089909000899090008F8
:1000600099090008990900089909000899090008E8
:10007000990900089909000899090008F108000881
:1000800099090008990900089909000899090008C8
:1000900099090008990900089909000899090008B8
:1000A00099090008990900089909000899090008A8
:1000B000E90300089909000899090008990900084E
:1000C0009909000899090008990900089909000888
:1000D00031090008990900089909000899090008E0
:1000E0009909000899090008990900089909000868
:1000F0009909000899090008990900089909000858
:100100009909000899090008990900089909000847
:100110009909000899090008990900089909000837
:100120009909000899090008990900089909000827
:100130009909000899090008990900089909000817
:100140009909000899090008990900089909000807
:1001500099090008990900089909000899090008F7
:1001600099090008990900089909000899090008E7
:100170009909000899090008990900080000000081
:08018000990900089909000823
:100188000348044B834202D0034B03B1184770471E
:100198000400002004000020000000000548064B71
:1001A8001B1AD90F01EBA301491002D0034B03B16D
:1001B80018477047040000200400002000000000D9
:1001C80010B5064C237843B9FFF7DAFF044B13B197
:1001D8000448AFF300800123237010BD0400002001
:1001E800000000009C09000808B5044B1BB1044935
:1001F8000448AFF30080BDE80840CFE700000000E6
:10020800080000209C090008830730B547D0541E19
:10021800002A3ED0CAB2034601E0013C39D303F8B4
:10022800012B9D07F9D1032C2CD9CDB205EB05255F
:100238000F2C05EB054535D9A4F1100222F00F0C5F
:1002480003F1100EE6444FEA121C1A46C2E90055A3
:10025800C2E9025510327245F8D10CF1010214F0CE
:100268000C0F03EB021204F00F0C13D0ACF10403D3
:1002780023F003030433134442F8045B9342FBD195
:100288000CF003042CB1C9B21C4403F8011BA342AF
:10029800FBD130BD64461346002CF4D1F9E7034680
:1002A8001446C0E71A46A446E0E700BF844641EA80
:1002B800000313F003036DD1403A41D351F8043BD6
:1002C80040F8043B51F8043B40F8043B51F8043B28
:1002D80040F8043B51F8043B40F8043B51F8043B18
:1002E80040F8043B51F8043B40F8043B51F8043B08
:1002F80040F8043B51F8043B40F8043B51F8043BF8
:1003080040F8043B51F8043B40F8043B51F8043BE7
:1003180040F8043B51F8043B40F8043B51F8043BD7
:1003280040F8043B51F8043B40F8043B51F8043BC7
:1003380040F8043B51F8043B40F8043B403ABDD236
:10034800303211D351F8043B40F8043B51F8043BD8
:1003580040F8043B51F8043B40F8043B51F8043B97
:1003680040F8043B103AEDD20C3205D351F8043B67
:1003780040F8043B043AF9D2043208D0D2071CBF33
:1003880011F8013B00F8013B01D30B88038060465C
:10039800704700BF082A13D38B078DD010F00303D2
:1003A8008AD0C3F10403D21ADB071CBF11F8013B42
:1003B80000F8013B80D331F8023B20F8023B7BE791
:1003C800043AD9D3013A11F8013B00F8013BF9D2BC
:1003D8000B7803704B7843708B7883706046704756
:1003E8004FF0804238B51469424BA5070BD51978F0
:1003F800C8077DD4404941200870526B4A601A787A
:1004080042F001021A7061070DD51A7892076BD471
:10041800394942204FF080420872926BCA601A78BC
:1004280042F002021A7025070DD51A78500757D4E2
:10043800314943204FF080420874D26B4A611A78E0
:1004480042F004021A70E1060DD51A78120711D489
:10045800294944204FF080420876126CCA611A7804
:1004680042F008021A701B780F2B09D04FF0804316
:100478001C6138BD4FF08042126C1B780F2BF5D1F0
:100488004FF080421D4D13681B4923F00103136090
:10049800002001EBC00300225B6811F830C02B710B
:1004A8006CF307024FEA136C6CF30F224FEA134CFC
:1004B80001306CF317421B0A63F31F6204282A6099
:1004C80005F10505E5D10D48142100F0D3F900F038
:1004D80023F90B4B01221A704FF080431C6138BD81
:1004E8004FF08042D26BAEE74FF08042926B9AE7B2
:1004F800526B88E7350000203800002020000020DB
:1005080034000020F8B500F045F800F06FF800F06E
:1005180085F800F00FF900F065F900F003F9174CC1
:10052800174D002727702F7000F036F92B7833B954
:10053800144B01E0013B02D02A78002AFAD02B782C
:1005480053B900F045F900F0EDF80F4B00BF1A461B
:10055800013B002AFAD1E5E70C4E01E0013E03D049
:1005680000F0BCF90028F9D100F0DCF8084B00BF16
:100578001A46013B002AFAD1D4E700BF3500002013
:100588003400002080DE80023F9002000159000103
:100598003FD10C00114A136C43F080531364136865
:1005A80043F48033136013689903FCD50C4B5360F4
:1005B80013680A4943F0807313600B689B01FCD5EC
:1005C80049F20243054A8B60936803F00C03082B39
:1005D800FAD1044B044A1A60704700BF0038024041
:1005E8000854400700000020007A030A0A4B1A68E2
:1005F800002042F080521A6083F81C035A681021C8
:100608000A435A6083F824131A6842F400421A60B5
:1006180083F80F13704700BF00E100E03C4A136BFA
:1006280043F003031363BFF34F8FA2F56052394BB6
:10063800116821F0FF011160116841F0AA011160F1
:10064800D16821F0FF01D160116A21F00F0141F05A
:1006580001011162116A21F0F00141F010011162EB
:10066800116A21F4706141F480711162116A21F4F8
:10067800704141F4805111621A6822F003021A6035
:100688001A6842F001021A605A6822F001025A60A0
:100698009A6822F003029A609A6842F002029A600D
:1006A800DA684FF4803022F00302DA6098611A6841
:1006B80022F07F421A601A6842F02A421A605A6889
:1006C80022F470425A609A6822F07F429A609A68CF
:1006D80042F07F429A60DA6822F07F42DA605A6A12
:1006E80022F4702242F4A0225A625A6A22F470025A
:1006F80042F4A0025A625A6A22F0706242F0A06282
:100708005A625A6A22F0704242F0A0425A62704716
:100718000038024000040240014B01229A617047F0
:1007280000040240024B4FF480329A61704700BFC8
:1007380000040240164A136C43F0010310B413641A
:10074800BFF34F8F4FF0804300224FF0FF341A6001
:1007580010495A6040F201109A60DA609A61DA61D1
:100768001A625A621A619A62DC6241F21114986143
:10077800D8611C624FF080501E24DC6081F81C2375
:100788000860012159615DF8044B1A61704700BF88
:100798000038024000E100E010B40A490A4C0B4856
:1007A8004FF0804200230B604B608B60CB6023705E
:1007B80003705362136113685DF8044B43F001033F
:1007C800136070475C00002059000020580000208A
:1007D8004FF0804300211A6822F001021A60196163
:1007E800704700BF1C4B1A6C42F4804230B41A6444
:1007F8001A6B42F400121A63BFF34F8FA3F500334C
:100808000021164A19602220596019605860136F38
:1008180023F001031367136F13F00103FBD1104C8E
:1008280010493D25D56094670F4CD467142454674C
:100838001020C2F884300D4C0D4D15674FF400435D
:1008480081F80F030B6081F824034860236843F0A4
:100858004003236030BC704700380240006002400B
:100868000C38004000E100E0700000200038004033
:100878005404010070B50C46142C144D264628BFAC
:100888001426014632462846FFF710FD132C05D8DA
:10089800C6F114020021A819FFF7B6FC0C4B0D4A4B
:1008A80001211970136F23F001031367136FDB071E
:1008B800FCD4094B14213D20D060D5675167D96815
:1008C8009B68136F43F00103136770BD700000202D
:1008D8006C0000200060024000380040014B18788E
:1008E800704700BF6C0000200C4B59688A060CD575
:1008F80020200B4AD86093689807FCD5084A93686B
:1009080013F08003FBD1074A13700B0705D5034981
:10091800044B08200022C8601A707047006002402B
:10092800003800406C000020084A9368590644BF0C
:10093800D1689268DB0608D5044B1A6822F0400299
:100948001A601A6842F040021A6070470038004086
:100958000A480B490B4A03E050F8043B41F8043BB2
:100968009142F9DB084809494FF0000201E040F8DC
:10097800042B8842FBDBFFF7C5FDFEE7C40900082E
:100988000000002004000020040000208400002053
:10099800FFF7FEBFF8B500BFF8BC08BC9E4670471D
:0C09A800F8B500BFF8BC08BC9E467047C4
:0809B40000F9FF7F01000000C3
:0409BC00F10100083D
:0409C000C901000861
:0409C400007A030AA8
:04000005080009598D
:00000001FF
